{
  "contractName": "Verification",
  "abi": [
    {
      "inputs": [
        {
          "internalType": "bytes32",
          "name": "hash",
          "type": "bytes32"
        },
        {
          "internalType": "bytes",
          "name": "signature",
          "type": "bytes"
        }
      ],
      "name": "recover",
      "outputs": [
        {
          "internalType": "address",
          "name": "",
          "type": "address"
        }
      ],
      "stateMutability": "pure",
      "type": "function",
      "constant": true
    }
  ],
  "bytecode": "0x608060405234801561001057600080fd5b50610234806100206000396000f3fe608060405234801561001057600080fd5b506004361061002b5760003560e01c806319045a2514610030575b600080fd5b6100f36004803603604081101561004657600080fd5b81019080803590602001909291908035906020019064010000000081111561006d57600080fd5b82018360208201111561007f57600080fd5b803590602001918460018302840111640100000000831117156100a157600080fd5b91908080601f016020809104026020016040519081016040528093929190818152602001838380828437600081840152601f19601f82011690508083019250505050505050919291929050505061011f565b604051808273ffffffffffffffffffffffffffffffffffffffff16815260200191505060405180910390f35b600080600080604185511461013a57600093505050506101f8565b6020850151925060408501519150606085015160001a9050601b8160ff16101561016557601b810190505b601b8160ff161415801561017d5750601c8160ff1614155b1561018e57600093505050506101f8565b60018682858560405160008152602001604052604051808581526020018460ff1681526020018381526020018281526020019450505050506020604051602081039080840390855afa1580156101e8573d6000803e3d6000fd5b5050506020604051035193505050505b9291505056fea2646970667358221220c548b1b42bb31e73090f6d73c15d58ed44998d70d6746e848074bd628ec896e664736f6c63430007040033",
  "immutableReferences": {},
  "source": "// \"SPDX-License-Identifier: MIT\"\r\npragma solidity 0.7.4;\r\n\r\n/**\r\n * Based upon ECDSA library from OpenZeppelin Solidity\r\n * https://github.com/OpenZeppelin/openzeppelin-solidity/blob/master/contracts/cryptography/ECDSA.sol\r\n */\r\n\r\ncontract Verification {\r\n\r\n  /**\r\n   * @dev Recover signer address from a message by using their signature\r\n   * @param hash bytes32 message, the hash is the signed message. What is recovered is the signer address.\r\n   * @param signature bytes signature, the signature is generated using web3.eth.sign()\r\n   */\r\n  function recover(bytes32 hash, bytes memory signature)\r\n    public\r\n    pure\r\n    returns (address)\r\n  {\r\n    bytes32 r;\r\n    bytes32 s;\r\n    uint8 v;\r\n\r\n    // Check the signature length\r\n    if (signature.length != 65) {\r\n      return (address(0));\r\n    }\r\n\r\n    // Divide the signature in r, s and v variables\r\n    // ecrecover takes the signature parameters, and the only way to get them\r\n    // currently is to use assembly.\r\n    // solium-disable-next-line security/no-inline-assembly\r\n    assembly {\r\n      r := mload(add(signature, 0x20))\r\n      s := mload(add(signature, 0x40))\r\n      v := byte(0, mload(add(signature, 0x60)))\r\n    }\r\n\r\n    // Version of signature should be 27 or 28, but 0 and 1 are also possible versions\r\n    if (v < 27) {\r\n      v += 27;\r\n    }\r\n\r\n    // If the version is correct return the signer address\r\n    if (v != 27 && v != 28) {\r\n      return (address(0));\r\n    } else {\r\n      // solium-disable-next-line arg-overflow\r\n      return ecrecover(hash, v, r, s);\r\n    }\r\n  }\r\n}",
  "sourcePath": "C:/Users/DragonLord/Desktop/dApp/Schedule transaction/ecrecover/contracts/Verification.sol",
  "compiler": {
    "name": "solc",
    "version": "0.7.4+commit.3f05b770.Emscripten.clang"
  },
  "schemaVersion": "3.3.2",
  "updatedAt": "2020-12-02T16:36:42.918Z",
  "networkType": "ethereum",
  "devdoc": {
    "kind": "dev",
    "methods": {
      "recover(bytes32,bytes)": {
        "details": "Recover signer address from a message by using their signature",
        "params": {
          "hash": "bytes32 message, the hash is the signed message. What is recovered is the signer address.",
          "signature": "bytes signature, the signature is generated using web3.eth.sign()"
        }
      }
    },
    "version": 1
  },
  "userdoc": {
    "kind": "user",
    "methods": {},
    "notice": "Based upon ECDSA library from OpenZeppelin Solidity https://github.com/OpenZeppelin/openzeppelin-solidity/blob/master/contracts/cryptography/ECDSA.sol",
    "version": 1
  }
}